{
  "_format": "hh-sol-artifact-1",
  "contractName": "BlockCar",
  "sourceName": "src/backend/contracts/BlockCar.sol",
  "abi": [
    {
      "inputs": [
        {
          "internalType": "uint256",
          "name": "_feePercent",
          "type": "uint256"
        }
      ],
      "stateMutability": "nonpayable",
      "type": "constructor"
    },
    {
      "anonymous": false,
      "inputs": [
        {
          "indexed": false,
          "internalType": "uint256",
          "name": "itemId",
          "type": "uint256"
        },
        {
          "indexed": true,
          "internalType": "address",
          "name": "nft",
          "type": "address"
        },
        {
          "indexed": false,
          "internalType": "uint256",
          "name": "tokenId",
          "type": "uint256"
        },
        {
          "indexed": false,
          "internalType": "uint256",
          "name": "price",
          "type": "uint256"
        },
        {
          "indexed": true,
          "internalType": "address",
          "name": "seller",
          "type": "address"
        },
        {
          "indexed": true,
          "internalType": "address",
          "name": "buyer",
          "type": "address"
        }
      ],
      "name": "Bought",
      "type": "event"
    },
    {
      "anonymous": false,
      "inputs": [
        {
          "indexed": false,
          "internalType": "uint256",
          "name": "itemId",
          "type": "uint256"
        },
        {
          "indexed": true,
          "internalType": "address",
          "name": "nft",
          "type": "address"
        },
        {
          "indexed": false,
          "internalType": "uint256",
          "name": "tokenId",
          "type": "uint256"
        },
        {
          "indexed": false,
          "internalType": "uint256",
          "name": "price",
          "type": "uint256"
        },
        {
          "indexed": true,
          "internalType": "address",
          "name": "seller",
          "type": "address"
        }
      ],
      "name": "Offered",
      "type": "event"
    },
    {
      "anonymous": false,
      "inputs": [
        {
          "indexed": false,
          "internalType": "uint256",
          "name": "itemId",
          "type": "uint256"
        },
        {
          "indexed": true,
          "internalType": "address",
          "name": "nft",
          "type": "address"
        },
        {
          "indexed": false,
          "internalType": "uint256",
          "name": "tokenId",
          "type": "uint256"
        },
        {
          "indexed": false,
          "internalType": "uint256",
          "name": "price",
          "type": "uint256"
        },
        {
          "indexed": true,
          "internalType": "address",
          "name": "seller",
          "type": "address"
        },
        {
          "indexed": true,
          "internalType": "address",
          "name": "buyer",
          "type": "address"
        }
      ],
      "name": "Resold",
      "type": "event"
    },
    {
      "inputs": [],
      "name": "feeAccount",
      "outputs": [
        {
          "internalType": "address payable",
          "name": "",
          "type": "address"
        }
      ],
      "stateMutability": "view",
      "type": "function"
    },
    {
      "inputs": [],
      "name": "feePercent",
      "outputs": [
        {
          "internalType": "uint256",
          "name": "",
          "type": "uint256"
        }
      ],
      "stateMutability": "view",
      "type": "function"
    },
    {
      "inputs": [
        {
          "internalType": "uint256",
          "name": "_itemId",
          "type": "uint256"
        }
      ],
      "name": "getTotalPrice",
      "outputs": [
        {
          "internalType": "uint256",
          "name": "",
          "type": "uint256"
        }
      ],
      "stateMutability": "view",
      "type": "function"
    },
    {
      "inputs": [
        {
          "internalType": "uint256",
          "name": "_itemId",
          "type": "uint256"
        }
      ],
      "name": "getTransactions",
      "outputs": [
        {
          "components": [
            {
              "internalType": "uint256",
              "name": "itemId",
              "type": "uint256"
            },
            {
              "internalType": "address",
              "name": "seller",
              "type": "address"
            },
            {
              "internalType": "address",
              "name": "buyer",
              "type": "address"
            },
            {
              "internalType": "uint256",
              "name": "price",
              "type": "uint256"
            },
            {
              "internalType": "uint256",
              "name": "timestamp",
              "type": "uint256"
            }
          ],
          "internalType": "struct BlockCar.Transaction[]",
          "name": "",
          "type": "tuple[]"
        }
      ],
      "stateMutability": "view",
      "type": "function"
    },
    {
      "inputs": [],
      "name": "itemCount",
      "outputs": [
        {
          "internalType": "uint256",
          "name": "",
          "type": "uint256"
        }
      ],
      "stateMutability": "view",
      "type": "function"
    },
    {
      "inputs": [
        {
          "internalType": "uint256",
          "name": "",
          "type": "uint256"
        }
      ],
      "name": "items",
      "outputs": [
        {
          "internalType": "uint256",
          "name": "itemId",
          "type": "uint256"
        },
        {
          "internalType": "contract IERC721",
          "name": "nft",
          "type": "address"
        },
        {
          "internalType": "uint256",
          "name": "tokenId",
          "type": "uint256"
        },
        {
          "internalType": "uint256",
          "name": "price",
          "type": "uint256"
        },
        {
          "internalType": "address payable",
          "name": "seller",
          "type": "address"
        },
        {
          "internalType": "address",
          "name": "owner",
          "type": "address"
        },
        {
          "internalType": "bool",
          "name": "sold",
          "type": "bool"
        }
      ],
      "stateMutability": "view",
      "type": "function"
    },
    {
      "inputs": [
        {
          "internalType": "contract IERC721",
          "name": "_nft",
          "type": "address"
        },
        {
          "internalType": "uint256",
          "name": "_tokenId",
          "type": "uint256"
        },
        {
          "internalType": "uint256",
          "name": "_price",
          "type": "uint256"
        }
      ],
      "name": "makeItem",
      "outputs": [],
      "stateMutability": "nonpayable",
      "type": "function"
    },
    {
      "inputs": [
        {
          "internalType": "uint256",
          "name": "_itemId",
          "type": "uint256"
        }
      ],
      "name": "purchaseItem",
      "outputs": [],
      "stateMutability": "payable",
      "type": "function"
    },
    {
      "inputs": [
        {
          "internalType": "uint256",
          "name": "_itemId",
          "type": "uint256"
        },
        {
          "internalType": "uint256",
          "name": "_price",
          "type": "uint256"
        }
      ],
      "name": "resellItem",
      "outputs": [],
      "stateMutability": "nonpayable",
      "type": "function"
    }
  ],
  "bytecode": "0x60c060405234801561001057600080fd5b50604051610d69380380610d6983398101604081905261002f91610043565b60016000553360601b60805260a05261005b565b600060208284031215610054578081fd5b5051919050565b60805160601c60a051610cd961009060003960008181610143015261033d01526000818160d301526105070152610cd96000f3fe6080604052600436106100865760003560e01c8063bfb231d211610059578063bfb231d214610165578063ca7dd37514610215578063d38ea5bf14610235578063f9eccb3b1461024a578063fa00afc71461026a57600080fd5b80635742177c1461008b57806365e17c9d146100c15780636bfb0d011461010d5780637fd6f15c14610131575b600080fd5b34801561009757600080fd5b506100ab6100a6366004610b51565b61028a565b6040516100b89190610b8a565b60405180910390f35b3480156100cd57600080fd5b506100f57f000000000000000000000000000000000000000000000000000000000000000081565b6040516001600160a01b0390911681526020016100b8565b34801561011957600080fd5b5061012360015481565b6040519081526020016100b8565b34801561013d57600080fd5b506101237f000000000000000000000000000000000000000000000000000000000000000081565b34801561017157600080fd5b506101d2610180366004610b51565b600260208190526000918252604090912080546001820154928201546003830154600484015460059094015492946001600160a01b03908116949293919281169190811690600160a01b900460ff1687565b604080519788526001600160a01b03968716602089015287019490945260608601929092528316608085015290911660a0830152151560c082015260e0016100b8565b34801561022157600080fd5b50610123610230366004610b51565b610334565b610248610243366004610b51565b61038e565b005b34801561025657600080fd5b50610248610265366004610b69565b61077b565b34801561027657600080fd5b50610248610285366004610b12565b6108d4565b606060036000838152602001908152602001600020805480602002602001604051908101604052809291908181526020016000905b828210156103295760008481526020908190206040805160a08101825260058602909201805483526001808201546001600160a01b0390811685870152600283015416928401929092526003810154606084015260040154608083015290835290920191016102bf565b505050509050919050565b600060646103627f000000000000000000000000000000000000000000000000000000000000000082610c04565b60008481526002602052604090206003015461037e9190610c3c565b6103889190610c1c565b92915050565b610396610ab8565b60006103a182610334565b600083815260026020526040902090915082158015906103c357506001548311155b6103cc57600080fd5b813410156103d957600080fd5b6005810154600160a01b900460ff16156103f257600080fd5b60048101546001600160a01b03166104475760405162461bcd60e51b8152602060048201526013602482015272125d195b48191bd95cc81b9bdd08195e1a5cdd606a1b60448201526064015b60405180910390fd5b60058101546001600160a01b03163314156104a45760405162461bcd60e51b815260206004820152601960248201527f596f7520616c7265616479206f776e2074686973206974656d00000000000000604482015260640161043e565b600481015460038201546040516001600160a01b039092169181156108fc0291906000818181858888f193505050501580156104e4573d6000803e3d6000fd5b5060008160030154836104f79190610c5b565b6040519091506001600160a01b037f0000000000000000000000000000000000000000000000000000000000000000169082156108fc029083906000818181858888f19350505050158015610550573d6000803e3d6000fd5b50336002600086815260200190815260200160002060050160006101000a8154816001600160a01b0302191690836001600160a01b0316021790555060016002600086815260200190815260200160002060050160146101000a81548160ff02191690831515021790555060006040518060a001604052808681526020018460040160009054906101000a90046001600160a01b03166001600160a01b03168152602001336001600160a01b0316815260200184600301548152602001428152509050600360008681526020019081526020016000208190806001815401808255809150506001900390600052602060002090600502016000909190919091506000820151816000015560208201518160010160006101000a8154816001600160a01b0302191690836001600160a01b0316021790555060408201518160020160006101000a8154816001600160a01b0302191690836001600160a01b0316021790555060608201518160030155608082015181600401555050336001600160a01b03168360040160009054906101000a90046001600160a01b03166001600160a01b03168460010160009054906101000a90046001600160a01b03166001600160a01b03167f8b4c9c8a607d67b321582dd8461041b1dc2ceeca70c8b7f37f8e02095cf2e76d8887600201548860030154604051610762939291909283526020830191909152604082015260600190565b60405180910390a4505050506107786001600055565b50565b610783610ab8565b600082815260026020526040902082158015906107a257506001548311155b6107e45760405162461bcd60e51b8152602060048201526013602482015272125d195b48191bd95cc81b9bdd08195e1a5cdd606a1b604482015260640161043e565b60058101546001600160a01b031633146108535760405162461bcd60e51b815260206004820152602a60248201527f4f6e6c79207468652063757272656e74206f776e65722063616e20726573656c6044820152696c20746865206974656d60b01b606482015260840161043e565b60058101805460ff60a01b191690556003810182905560018101546002820154604080518681526020810192909252810184905260009133916001600160a01b03909116907f1dd0b07b9d0681e1abcce44caa46df2cb308191d561edb3f9adb855708b458199060600160405180910390a4506108d06001600055565b5050565b6108dc610ab8565b6000811161092c5760405162461bcd60e51b815260206004820152601f60248201527f5072696365206d7573742062652067726561746572207468616e207a65726f00604482015260640161043e565b6001805490600061093c83610c72565b90915550506040516323b872dd60e01b8152336004820152306024820152604481018390526001600160a01b038416906323b872dd90606401600060405180830381600087803b15801561098f57600080fd5b505af11580156109a3573d6000803e3d6000fd5b50506040805160e081018252600180548083526001600160a01b0389811660208086018281528688018c815260608089018d81523360808b01818152600060a08d0181815260c08e018281529b82526002808a52918f90209d518e5596518d8d018054918c166001600160a01b03199283161790559551908d0155915160038c0155905160048b018054918916919094161790925591516005909801805496511515600160a01b026001600160a81b03199097169890951697909717949094179092559254855190815290810189905293840187905291945092507f655a0cf9c8db81512be9a76dc1c5ae5380b8816ce6ad659cd61b715e2999d59a910160405180910390a3610ab36001600055565b505050565b60026000541415610b0b5760405162461bcd60e51b815260206004820152601f60248201527f5265656e7472616e637947756172643a207265656e7472616e742063616c6c00604482015260640161043e565b6002600055565b600080600060608486031215610b26578283fd5b83356001600160a01b0381168114610b3c578384fd5b95602085013595506040909401359392505050565b600060208284031215610b62578081fd5b5035919050565b60008060408385031215610b7b578182fd5b50508035926020909101359150565b602080825282518282018190526000919060409081850190868401855b82811015610bf757815180518552868101516001600160a01b0390811688870152868201511686860152606080820151908601526080908101519085015260a09093019290850190600101610ba7565b5091979650505050505050565b60008219821115610c1757610c17610c8d565b500190565b600082610c3757634e487b7160e01b81526012600452602481fd5b500490565b6000816000190483118215151615610c5657610c56610c8d565b500290565b600082821015610c6d57610c6d610c8d565b500390565b6000600019821415610c8657610c86610c8d565b5060010190565b634e487b7160e01b600052601160045260246000fdfea2646970667358221220882970b0be866418ef816bdf49019ef26c1ffd58d87e844235ea6b1f6fcdd83a64736f6c63430008040033",
  "linkReferences": {},
  "deployedLinkReferences": {}
}